{
  "address": "0x2Fc1B7883daDd66F99c85e01DcF5112135fb2156",
  "abi": [
    {
      "inputs": [],
      "stateMutability": "nonpayable",
      "type": "constructor"
    },
    {
      "inputs": [],
      "name": "CampaingnNotFound",
      "type": "error"
    },
    {
      "inputs": [],
      "name": "Decimals_Exceeded",
      "type": "error"
    },
    {
      "inputs": [],
      "name": "Insufficient_Balance",
      "type": "error"
    },
    {
      "inputs": [],
      "name": "Transfer_Failed",
      "type": "error"
    },
    {
      "anonymous": false,
      "inputs": [
        {
          "indexed": true,
          "internalType": "address",
          "name": "from",
          "type": "address"
        },
        {
          "indexed": true,
          "internalType": "address",
          "name": "to",
          "type": "address"
        },
        {
          "indexed": false,
          "internalType": "uint256",
          "name": "amount",
          "type": "uint256"
        }
      ],
      "name": "Transfer",
      "type": "event"
    },
    {
      "anonymous": false,
      "inputs": [
        {
          "indexed": true,
          "internalType": "address",
          "name": "reciever",
          "type": "address"
        },
        {
          "indexed": false,
          "internalType": "uint256",
          "name": "amountPaid",
          "type": "uint256"
        }
      ],
      "name": "paidCampaign",
      "type": "event"
    },
    {
      "inputs": [
        {
          "internalType": "string",
          "name": "name",
          "type": "string"
        },
        {
          "internalType": "string",
          "name": "description",
          "type": "string"
        },
        {
          "internalType": "uint256",
          "name": "goal",
          "type": "uint256"
        },
        {
          "internalType": "address payable",
          "name": "depositAddress",
          "type": "address"
        }
      ],
      "name": "CreateCampaign",
      "outputs": [
        {
          "internalType": "bool",
          "name": "",
          "type": "bool"
        }
      ],
      "stateMutability": "nonpayable",
      "type": "function"
    },
    {
      "inputs": [],
      "name": "GetCampaigns",
      "outputs": [
        {
          "components": [
            {
              "internalType": "uint256",
              "name": "Id",
              "type": "uint256"
            },
            {
              "internalType": "string",
              "name": "Name",
              "type": "string"
            },
            {
              "internalType": "string",
              "name": "Description",
              "type": "string"
            },
            {
              "internalType": "uint256",
              "name": "Goal",
              "type": "uint256"
            },
            {
              "internalType": "address payable",
              "name": "DepositAddress",
              "type": "address"
            },
            {
              "internalType": "bool",
              "name": "Open",
              "type": "bool"
            }
          ],
          "internalType": "struct Campaingn[]",
          "name": "",
          "type": "tuple[]"
        }
      ],
      "stateMutability": "view",
      "type": "function"
    },
    {
      "inputs": [
        {
          "internalType": "uint256",
          "name": "id",
          "type": "uint256"
        }
      ],
      "name": "GetCampaingn",
      "outputs": [
        {
          "components": [
            {
              "internalType": "uint256",
              "name": "Id",
              "type": "uint256"
            },
            {
              "internalType": "string",
              "name": "Name",
              "type": "string"
            },
            {
              "internalType": "string",
              "name": "Description",
              "type": "string"
            },
            {
              "internalType": "uint256",
              "name": "Goal",
              "type": "uint256"
            },
            {
              "internalType": "address payable",
              "name": "DepositAddress",
              "type": "address"
            },
            {
              "internalType": "bool",
              "name": "Open",
              "type": "bool"
            }
          ],
          "internalType": "struct Campaingn",
          "name": "",
          "type": "tuple"
        }
      ],
      "stateMutability": "view",
      "type": "function"
    },
    {
      "inputs": [],
      "name": "GetCampaingnLength",
      "outputs": [
        {
          "internalType": "uint256",
          "name": "",
          "type": "uint256"
        }
      ],
      "stateMutability": "view",
      "type": "function"
    },
    {
      "inputs": [],
      "name": "GetLastId",
      "outputs": [
        {
          "internalType": "uint256",
          "name": "",
          "type": "uint256"
        }
      ],
      "stateMutability": "view",
      "type": "function"
    },
    {
      "inputs": [
        {
          "internalType": "uint256",
          "name": "id",
          "type": "uint256"
        }
      ],
      "name": "fundCampaign",
      "outputs": [
        {
          "internalType": "bool",
          "name": "",
          "type": "bool"
        }
      ],
      "stateMutability": "payable",
      "type": "function"
    },
    {
      "inputs": [
        {
          "internalType": "uint256",
          "name": "id",
          "type": "uint256"
        }
      ],
      "name": "getCampaignDeposit",
      "outputs": [
        {
          "internalType": "uint256",
          "name": "",
          "type": "uint256"
        }
      ],
      "stateMutability": "view",
      "type": "function"
    },
    {
      "inputs": [],
      "name": "getContractBalance",
      "outputs": [
        {
          "internalType": "uint256",
          "name": "",
          "type": "uint256"
        }
      ],
      "stateMutability": "view",
      "type": "function"
    },
    {
      "inputs": [],
      "name": "owner",
      "outputs": [
        {
          "internalType": "address",
          "name": "",
          "type": "address"
        }
      ],
      "stateMutability": "view",
      "type": "function"
    },
    {
      "inputs": [
        {
          "internalType": "uint256",
          "name": "id",
          "type": "uint256"
        }
      ],
      "name": "payCampaign",
      "outputs": [
        {
          "internalType": "bool",
          "name": "",
          "type": "bool"
        }
      ],
      "stateMutability": "payable",
      "type": "function"
    }
  ],
  "transactionHash": "0x19dfe5dd98edbf6859b611b974ab7c6f24dbf03e5254ff141795144707fcb188",
  "args": [],
  "numDeployments": 4,
  "solcInputHash": "3ae8787b625ba49a2c0387925ba0a302",
  "bytecode": "0x608060405234801561001057600080fd5b506000600481905580546001600160a01b0319167390139066a44a0ed1e335ca08fdc0218eae8d7c7f1790556110138061004b6000396000f3fe6080604052600436106100915760003560e01c80638da5cb5b116100595780638da5cb5b1461013d57806392bd38bc14610175578063bce36a5f14610188578063cde981b1146101aa578063f33234dd146101bf57600080fd5b806342a4ed9514610096578063458c2875146100be5780635937f669146100de5780635d37a09b146100fd5780636f9fb98a1461012a575b600080fd5b6100a96100a4366004610bd5565b6101ec565b60405190151581526020015b60405180910390f35b3480156100ca57600080fd5b506100a96100d9366004610c91565b610492565b3480156100ea57600080fd5b506001545b6040519081526020016100b5565b34801561010957600080fd5b506100ef610118366004610bd5565b60009081526003602052604090205490565b34801561013657600080fd5b50476100ef565b34801561014957600080fd5b5060005461015d906001600160a01b031681565b6040516001600160a01b0390911681526020016100b5565b6100a9610183366004610bd5565b610646565b34801561019457600080fd5b5061019d61082f565b6040516100b59190610dd0565b3480156101b657600080fd5b506004546100ef565b3480156101cb57600080fd5b506101df6101da366004610bd5565b6109f1565b6040516100b59190610e32565b6000818152600260209081526040808320815160c081019092528054825260018101805485948401919061021f90610e4c565b80601f016020809104026020016040519081016040528092919081815260200182805461024b90610e4c565b80156102985780601f1061026d57610100808354040283529160200191610298565b820191906000526020600020905b81548152906001019060200180831161027b57829003601f168201915b505050505081526020016002820180546102b190610e4c565b80601f01602080910402602001604051908101604052809291908181526020018280546102dd90610e4c565b801561032a5780601f106102ff5761010080835404028352916020019161032a565b820191906000526020600020905b81548152906001019060200180831161030d57829003601f168201915b5050509183525050600382015460208201526004909101546001600160a01b0381166040830152600160a01b900460ff1615156060909101528051909150600003610388576040516333b41d7560e21b815260040160405180910390fd5b6000838152600360205260409020544781106103b757604051633bf1830560e21b815260040160405180910390fd5b608082015160405160009081906001600160a01b0384169085908381818185875af1925050503d8060008114610409576040519150601f19603f3d011682016040523d82523d6000602084013e61040e565b606091505b509150915084608001516001600160a01b03167f9520dadc9058e9cac033992ff49f09abc34fad0df9565170fc592b60d196c9488560405161045291815260200190565b60405180910390a281610478576040516390914fd560e01b815260040160405180910390fd5b505050600093845250506003602052506040812055600190565b60008061049d610bb7565b6040805160c081018252600454815260208101898152918101889052606081018790526001600160a01b0386166080820152600160a0820181905280548082018255600091909152815160059091027fb10e2d527612073b26eecdfd717e6a320cf44b4afac2b0732d9fcbe2b7fa0cf681019182559251939450909283927fb10e2d527612073b26eecdfd717e6a320cf44b4afac2b0732d9fcbe2b7fa0cf701906105489082610ed5565b506040820151600282019061055d9082610ed5565b506060820151600382015560808201516004909101805460a0909301511515600160a01b026001600160a81b03199093166001600160a01b03909216919091179190911790556000828152600260209081526040909120825181559082015182919060018201906105ce9082610ed5565b50604082015160028201906105e39082610ed5565b50606082015160038083019190915560808301516004909201805460a0909401511515600160a01b026001600160a81b03199094166001600160a01b03909316929092179290921790556000928352602052506040812055506001949350505050565b6000818152600260209081526040808320815160c081019092528054825260018101805485948401919061067990610e4c565b80601f01602080910402602001604051908101604052809291908181526020018280546106a590610e4c565b80156106f25780601f106106c7576101008083540402835291602001916106f2565b820191906000526020600020905b8154815290600101906020018083116106d557829003601f168201915b5050505050815260200160028201805461070b90610e4c565b80601f016020809104026020016040519081016040528092919081815260200182805461073790610e4c565b80156107845780601f1061075957610100808354040283529160200191610784565b820191906000526020600020905b81548152906001019060200180831161076757829003601f168201915b5050509183525050600382015460208201526004909101546001600160a01b0381166040830152600160a01b900460ff16151560609091015280519091506000036107e2576040516333b41d7560e21b815260040160405180910390fd5b3460000361080357604051633bf1830560e21b815260040160405180910390fd5b60008381526003602052604081208054349290610821908490610fab565b909155506001949350505050565b60606001805480602002602001604051908101604052809291908181526020016000905b828210156109e857838290600052602060002090600502016040518060c00160405290816000820154815260200160018201805461089090610e4c565b80601f01602080910402602001604051908101604052809291908181526020018280546108bc90610e4c565b80156109095780601f106108de57610100808354040283529160200191610909565b820191906000526020600020905b8154815290600101906020018083116108ec57829003601f168201915b5050505050815260200160028201805461092290610e4c565b80601f016020809104026020016040519081016040528092919081815260200182805461094e90610e4c565b801561099b5780601f106109705761010080835404028352916020019161099b565b820191906000526020600020905b81548152906001019060200180831161097e57829003601f168201915b505050918352505060038201546020808301919091526004909201546001600160a01b0381166040830152600160a01b900460ff1615156060909101529082526001929092019101610853565b50505050905090565b610a356040518060c001604052806000815260200160608152602001606081526020016000815260200160006001600160a01b031681526020016000151581525090565b600260008381526020019081526020016000206040518060c001604052908160008201548152602001600182018054610a6d90610e4c565b80601f0160208091040260200160405190810160405280929190818152602001828054610a9990610e4c565b8015610ae65780601f10610abb57610100808354040283529160200191610ae6565b820191906000526020600020905b815481529060010190602001808311610ac957829003601f168201915b50505050508152602001600282018054610aff90610e4c565b80601f0160208091040260200160405190810160405280929190818152602001828054610b2b90610e4c565b8015610b785780601f10610b4d57610100808354040283529160200191610b78565b820191906000526020600020905b815481529060010190602001808311610b5b57829003601f168201915b5050509183525050600382015460208201526004909101546001600160a01b0381166040830152600160a01b900460ff16151560609091015292915050565b6004805460009182610bc883610fc4565b9190505550600454905090565b600060208284031215610be757600080fd5b5035919050565b634e487b7160e01b600052604160045260246000fd5b600082601f830112610c1557600080fd5b813567ffffffffffffffff80821115610c3057610c30610bee565b604051601f8301601f19908116603f01168101908282118183101715610c5857610c58610bee565b81604052838152866020858801011115610c7157600080fd5b836020870160208301376000602085830101528094505050505092915050565b60008060008060808587031215610ca757600080fd5b843567ffffffffffffffff80821115610cbf57600080fd5b610ccb88838901610c04565b95506020870135915080821115610ce157600080fd5b50610cee87828801610c04565b9350506040850135915060608501356001600160a01b0381168114610d1257600080fd5b939692955090935050565b6000815180845260005b81811015610d4357602081850181015186830182015201610d27565b506000602082860101526020601f19601f83011685010191505092915050565b805182526000602082015160c06020850152610d8260c0850182610d1d565b905060408301518482036040860152610d9b8282610d1d565b606085810151908701526080808601516001600160a01b03169087015260a09485015115159490950193909352509192915050565b6000602080830181845280855180835260408601915060408160051b870101925083870160005b82811015610e2557603f19888603018452610e13858351610d63565b94509285019290850190600101610df7565b5092979650505050505050565b602081526000610e456020830184610d63565b9392505050565b600181811c90821680610e6057607f821691505b602082108103610e8057634e487b7160e01b600052602260045260246000fd5b50919050565b601f821115610ed057600081815260208120601f850160051c81016020861015610ead5750805b601f850160051c820191505b81811015610ecc57828155600101610eb9565b5050505b505050565b815167ffffffffffffffff811115610eef57610eef610bee565b610f0381610efd8454610e4c565b84610e86565b602080601f831160018114610f385760008415610f205750858301515b600019600386901b1c1916600185901b178555610ecc565b600085815260208120601f198616915b82811015610f6757888601518255948401946001909101908401610f48565b5085821015610f855787850151600019600388901b60f8161c191681555b5050505050600190811b01905550565b634e487b7160e01b600052601160045260246000fd5b80820180821115610fbe57610fbe610f95565b92915050565b600060018201610fd657610fd6610f95565b506001019056fea2646970667358221220dafe569cec64248951a9d4404a8c213058fc838f7a2cf08840c5be8c14dd3fd564736f6c63430008140033",
  "devdoc": {
    "kind": "dev",
    "methods": {},
    "version": 1
  },
  "userdoc": {
    "kind": "user",
    "methods": {},
    "version": 1
  },
  "storageLayout": {
    "storage": [
      {
        "astId": 28,
        "contract": "contracts/CrowdFund.sol:CrowdFund",
        "label": "owner",
        "offset": 0,
        "slot": "0",
        "type": "t_address"
      },
      {
        "astId": 32,
        "contract": "contracts/CrowdFund.sol:CrowdFund",
        "label": "CampaingnList",
        "offset": 0,
        "slot": "1",
        "type": "t_array(t_struct(Campaingn)14_storage)dyn_storage"
      },
      {
        "astId": 37,
        "contract": "contracts/CrowdFund.sol:CrowdFund",
        "label": "CampaingnMapping",
        "offset": 0,
        "slot": "2",
        "type": "t_mapping(t_uint256,t_struct(Campaingn)14_storage)"
      },
      {
        "astId": 41,
        "contract": "contracts/CrowdFund.sol:CrowdFund",
        "label": "CampaingnDeposits",
        "offset": 0,
        "slot": "3",
        "type": "t_mapping(t_uint256,t_uint256)"
      },
      {
        "astId": 43,
        "contract": "contracts/CrowdFund.sol:CrowdFund",
        "label": "lastId",
        "offset": 0,
        "slot": "4",
        "type": "t_uint256"
      }
    ],
    "types": {
      "t_address": {
        "encoding": "inplace",
        "label": "address",
        "numberOfBytes": "20"
      },
      "t_address_payable": {
        "encoding": "inplace",
        "label": "address payable",
        "numberOfBytes": "20"
      },
      "t_array(t_struct(Campaingn)14_storage)dyn_storage": {
        "base": "t_struct(Campaingn)14_storage",
        "encoding": "dynamic_array",
        "label": "struct Campaingn[]",
        "numberOfBytes": "32"
      },
      "t_bool": {
        "encoding": "inplace",
        "label": "bool",
        "numberOfBytes": "1"
      },
      "t_mapping(t_uint256,t_struct(Campaingn)14_storage)": {
        "encoding": "mapping",
        "key": "t_uint256",
        "label": "mapping(uint256 => struct Campaingn)",
        "numberOfBytes": "32",
        "value": "t_struct(Campaingn)14_storage"
      },
      "t_mapping(t_uint256,t_uint256)": {
        "encoding": "mapping",
        "key": "t_uint256",
        "label": "mapping(uint256 => uint256)",
        "numberOfBytes": "32",
        "value": "t_uint256"
      },
      "t_string_storage": {
        "encoding": "bytes",
        "label": "string",
        "numberOfBytes": "32"
      },
      "t_struct(Campaingn)14_storage": {
        "encoding": "inplace",
        "label": "struct Campaingn",
        "members": [
          {
            "astId": 3,
            "contract": "contracts/CrowdFund.sol:CrowdFund",
            "label": "Id",
            "offset": 0,
            "slot": "0",
            "type": "t_uint256"
          },
          {
            "astId": 5,
            "contract": "contracts/CrowdFund.sol:CrowdFund",
            "label": "Name",
            "offset": 0,
            "slot": "1",
            "type": "t_string_storage"
          },
          {
            "astId": 7,
            "contract": "contracts/CrowdFund.sol:CrowdFund",
            "label": "Description",
            "offset": 0,
            "slot": "2",
            "type": "t_string_storage"
          },
          {
            "astId": 9,
            "contract": "contracts/CrowdFund.sol:CrowdFund",
            "label": "Goal",
            "offset": 0,
            "slot": "3",
            "type": "t_uint256"
          },
          {
            "astId": 11,
            "contract": "contracts/CrowdFund.sol:CrowdFund",
            "label": "DepositAddress",
            "offset": 0,
            "slot": "4",
            "type": "t_address_payable"
          },
          {
            "astId": 13,
            "contract": "contracts/CrowdFund.sol:CrowdFund",
            "label": "Open",
            "offset": 20,
            "slot": "4",
            "type": "t_bool"
          }
        ],
        "numberOfBytes": "160"
      },
      "t_uint256": {
        "encoding": "inplace",
        "label": "uint256",
        "numberOfBytes": "32"
      }
    }
  }
}